:1000000000308A001F28000023082207F8008A1108
:100010003928233084008313000803191D28013078
:10002000F800F701F70B1228F80B11284A30F700F7
:10003000F70B18281B28800B0F288A114D2803085E
:100040001F398300FF30A000831603170908C03949
:10005000890003131F129F120030031788008312B8
:10006000870188018901831304300313A200A300D0
:1000700004287808A1002010200883168700831226
:10008000071020102008831687000130831287068E
:100090000230A200FA30A3000928A20B4A28412806
:0200A0006300FB
:04400E00E12FFF3F60
:00000001FF
;PIC16F883
;CRC=34E4  CREATED="30-Dez-21 17:50"
